{
  "contractName": "Vault",
  "abi": [
    {
      "inputs": [
        {
          "internalType": "address",
          "name": "_vaultToken",
          "type": "address"
        },
        {
          "internalType": "uint256",
          "name": "_vestingPeriod",
          "type": "uint256"
        },
        {
          "internalType": "uint256",
          "name": "_interestRate",
          "type": "uint256"
        },
        {
          "internalType": "uint256",
          "name": "_vaultLimit",
          "type": "uint256"
        }
      ],
      "stateMutability": "nonpayable",
      "type": "constructor"
    },
    {
      "anonymous": false,
      "inputs": [
        {
          "indexed": true,
          "internalType": "address",
          "name": "user",
          "type": "address"
        },
        {
          "indexed": false,
          "internalType": "uint256",
          "name": "reward",
          "type": "uint256"
        }
      ],
      "name": "Claimed",
      "type": "event"
    },
    {
      "anonymous": false,
      "inputs": [
        {
          "indexed": false,
          "internalType": "address",
          "name": "userAddress",
          "type": "address"
        },
        {
          "indexed": false,
          "internalType": "address payable",
          "name": "relayerAddress",
          "type": "address"
        },
        {
          "indexed": false,
          "internalType": "bytes",
          "name": "functionSignature",
          "type": "bytes"
        }
      ],
      "name": "MetaTransactionExecuted",
      "type": "event"
    },
    {
      "anonymous": false,
      "inputs": [
        {
          "indexed": true,
          "internalType": "address",
          "name": "user",
          "type": "address"
        },
        {
          "indexed": false,
          "internalType": "uint256",
          "name": "amount",
          "type": "uint256"
        }
      ],
      "name": "Staked",
      "type": "event"
    },
    {
      "inputs": [],
      "name": "ERC712_VERSION",
      "outputs": [
        {
          "internalType": "string",
          "name": "",
          "type": "string"
        }
      ],
      "stateMutability": "view",
      "type": "function"
    },
    {
      "inputs": [
        {
          "internalType": "address",
          "name": "userAddress",
          "type": "address"
        },
        {
          "internalType": "bytes",
          "name": "functionSignature",
          "type": "bytes"
        },
        {
          "internalType": "bytes32",
          "name": "sigR",
          "type": "bytes32"
        },
        {
          "internalType": "bytes32",
          "name": "sigS",
          "type": "bytes32"
        },
        {
          "internalType": "uint8",
          "name": "sigV",
          "type": "uint8"
        }
      ],
      "name": "executeMetaTransaction",
      "outputs": [
        {
          "internalType": "bytes",
          "name": "",
          "type": "bytes"
        }
      ],
      "stateMutability": "payable",
      "type": "function"
    },
    {
      "inputs": [],
      "name": "getChainId",
      "outputs": [
        {
          "internalType": "uint256",
          "name": "",
          "type": "uint256"
        }
      ],
      "stateMutability": "pure",
      "type": "function"
    },
    {
      "inputs": [],
      "name": "getDomainSeperator",
      "outputs": [
        {
          "internalType": "bytes32",
          "name": "",
          "type": "bytes32"
        }
      ],
      "stateMutability": "view",
      "type": "function"
    },
    {
      "inputs": [
        {
          "internalType": "address",
          "name": "user",
          "type": "address"
        }
      ],
      "name": "getNonce",
      "outputs": [
        {
          "internalType": "uint256",
          "name": "nonce",
          "type": "uint256"
        }
      ],
      "stateMutability": "view",
      "type": "function"
    },
    {
      "inputs": [],
      "name": "interestRate",
      "outputs": [
        {
          "internalType": "uint256",
          "name": "",
          "type": "uint256"
        }
      ],
      "stateMutability": "view",
      "type": "function"
    },
    {
      "inputs": [
        {
          "internalType": "address",
          "name": "",
          "type": "address"
        },
        {
          "internalType": "uint256",
          "name": "",
          "type": "uint256"
        }
      ],
      "name": "userVault",
      "outputs": [
        {
          "internalType": "uint256",
          "name": "amount",
          "type": "uint256"
        },
        {
          "internalType": "uint256",
          "name": "depositTime",
          "type": "uint256"
        },
        {
          "internalType": "uint256",
          "name": "vestingPeriodEnds",
          "type": "uint256"
        },
        {
          "internalType": "uint256",
          "name": "lastUpdated",
          "type": "uint256"
        },
        {
          "internalType": "uint256",
          "name": "claimedAmount",
          "type": "uint256"
        },
        {
          "internalType": "uint256",
          "name": "totalEarned",
          "type": "uint256"
        }
      ],
      "stateMutability": "view",
      "type": "function"
    },
    {
      "inputs": [],
      "name": "vaultLimit",
      "outputs": [
        {
          "internalType": "uint256",
          "name": "",
          "type": "uint256"
        }
      ],
      "stateMutability": "view",
      "type": "function"
    },
    {
      "inputs": [],
      "name": "vaultToken",
      "outputs": [
        {
          "internalType": "contract IERC20",
          "name": "",
          "type": "address"
        }
      ],
      "stateMutability": "view",
      "type": "function"
    },
    {
      "inputs": [],
      "name": "vestingPeriod",
      "outputs": [
        {
          "internalType": "uint256",
          "name": "",
          "type": "uint256"
        }
      ],
      "stateMutability": "view",
      "type": "function"
    },
    {
      "inputs": [],
      "name": "totalSupply",
      "outputs": [
        {
          "internalType": "uint256",
          "name": "",
          "type": "uint256"
        }
      ],
      "stateMutability": "view",
      "type": "function"
    },
    {
      "inputs": [],
      "name": "totalDeposits",
      "outputs": [
        {
          "internalType": "uint256",
          "name": "",
          "type": "uint256"
        }
      ],
      "stateMutability": "view",
      "type": "function"
    },
    {
      "inputs": [
        {
          "internalType": "address",
          "name": "account",
          "type": "address"
        }
      ],
      "name": "balanceOf",
      "outputs": [
        {
          "internalType": "uint256",
          "name": "",
          "type": "uint256"
        }
      ],
      "stateMutability": "view",
      "type": "function"
    },
    {
      "inputs": [
        {
          "internalType": "address",
          "name": "account",
          "type": "address"
        }
      ],
      "name": "getUserVaultInfo",
      "outputs": [
        {
          "components": [
            {
              "internalType": "uint256",
              "name": "amount",
              "type": "uint256"
            },
            {
              "internalType": "uint256",
              "name": "depositTime",
              "type": "uint256"
            },
            {
              "internalType": "uint256",
              "name": "vestingPeriodEnds",
              "type": "uint256"
            },
            {
              "internalType": "uint256",
              "name": "lastUpdated",
              "type": "uint256"
            },
            {
              "internalType": "uint256",
              "name": "claimedAmount",
              "type": "uint256"
            },
            {
              "internalType": "uint256",
              "name": "totalEarned",
              "type": "uint256"
            }
          ],
          "internalType": "struct Vault.UserVault[]",
          "name": "",
          "type": "tuple[]"
        }
      ],
      "stateMutability": "view",
      "type": "function"
    },
    {
      "inputs": [
        {
          "internalType": "address",
          "name": "account",
          "type": "address"
        }
      ],
      "name": "earned",
      "outputs": [
        {
          "internalType": "uint256",
          "name": "",
          "type": "uint256"
        }
      ],
      "stateMutability": "view",
      "type": "function"
    },
    {
      "inputs": [
        {
          "internalType": "uint256",
          "name": "amount",
          "type": "uint256"
        }
      ],
      "name": "stake",
      "outputs": [],
      "stateMutability": "nonpayable",
      "type": "function"
    },
    {
      "inputs": [],
      "name": "claim",
      "outputs": [],
      "stateMutability": "nonpayable",
      "type": "function"
    }
  ],
  "bytecode": "0x60806040526001805460ff191690553480156200001b57600080fd5b5060405162001d4838038062001d488339810160408190526200003e916200024e565b6001600055600480546001600160a01b0319166001600160a01b0386161790556200007e81670de0b6b3a7640000620000ee602090811b62000d7717901c565b6006556200009a82606462000140602090811b62000dba17901c565b600755620000b88362015180620000ee602090811b62000d7717901c565b6005556040805180820190915260078152665661756c74563160c81b6020820152620000e49062000168565b5050505062000365565b600082620000ff575060006200013a565b828202828482816200010d57fe5b0414620001375760405162461bcd60e51b81526004016200012e90620002fc565b60405180910390fd5b90505b92915050565b600082820183811015620001375760405162461bcd60e51b81526004016200012e90620002c5565b60015460ff16156200018e5760405162461bcd60e51b81526004016200012e906200033d565b6200019981620001a8565b506001805460ff191681179055565b6040518060800160405280604f815260200162001cf9604f913980516020918201208251838301206040805180820190915260018152603160f81b930192909252907fc89efdaa54c0f20c7adf612882df0950f5a951637e0307cdcb4c672f298b8bc630620002166200024a565b6040516200022c95949392919060200162000299565b60408051601f19818403018152919052805160209091012060025550565b4690565b6000806000806080858703121562000264578384fd5b84516001600160a01b03811681146200027b578485fd5b60208601516040870151606090970151919890975090945092505050565b948552602085019390935260408401919091526001600160a01b03166060830152608082015260a00190565b6020808252601b908201527f536166654d6174683a206164646974696f6e206f766572666c6f770000000000604082015260600190565b60208082526021908201527f536166654d6174683a206d756c7469706c69636174696f6e206f766572666c6f6040820152607760f81b606082015260800190565b6020808252600e908201526d185b1c9958591e481a5b9a5d195960921b604082015260600190565b61198480620003756000396000f3fe6080604052600436106100fd5760003560e01c8063703bafd5116100955780637d882097116100645780637d8820971461024f578063a694fc3a14610264578063d43eb23d14610284578063dc7e676c146102b6578063e81a5c73146102e3576100fd565b8063703bafd5146101e357806370a08231146102055780637313ee5a146102255780637c3a00fd1461023a576100fd565b806320379ee5116100d157806320379ee5146101825780632d0335ab146101975780633408e470146101b75780634e71d92d146101cc576100fd565b80628cc262146101025780630c53c51c146101385780630f7e59701461015857806318160ddd1461016d575b600080fd5b34801561010e57600080fd5b5061012261011d366004611268565b6102f8565b60405161012f919061153a565b60405180910390f35b61014b610146366004611283565b6104ca565b60405161012f9190611585565b34801561016457600080fd5b5061014b61065e565b34801561017957600080fd5b5061012261067b565b34801561018e57600080fd5b50610122610682565b3480156101a357600080fd5b506101226101b2366004611268565b610688565b3480156101c357600080fd5b506101226106a3565b3480156101d857600080fd5b506101e16106a7565b005b3480156101ef57600080fd5b506101f8610a09565b60405161012f9190611598565b34801561021157600080fd5b50610122610220366004611268565b610a18565b34801561023157600080fd5b50610122610a33565b34801561024657600080fd5b50610122610a39565b34801561025b57600080fd5b50610122610a3f565b34801561027057600080fd5b506101e161027f36600461139e565b610a45565b34801561029057600080fd5b506102a461029f366004611354565b610c6f565b60405161012f969594939291906118b7565b3480156102c257600080fd5b506102d66102d1366004611268565b610cc0565b60405161012f91906114c2565b3480156102ef57600080fd5b50610122610d71565b6001600160a01b03811660009081526008602090815260408083208054825181850281018501909352808352606093859084015b8282101561039a57838290600052602060002090600602016040518060c001604052908160008201548152602001600182015481526020016002820154815260200160038201548152602001600482015481526020016005820154815250508152602001906001019061032c565b5050505090506000805b82518110156104c2578281815181106103b957fe5b6020026020010151608001518382815181106103d157fe5b602002602001015160000151116103e7576104ba565b60008382815181106103f557fe5b602002602001015160400151421161040d5742610426565b83828151811061041957fe5b6020026020010151604001515b9050600061045485848151811061043957fe5b60200260200101516060015183610ddf90919063ffffffff16565b9050600061048e6005546104888489888151811061046e57fe5b602002602001015160000151610d7790919063ffffffff16565b90610e07565b90506104b46104ad606461048860075485610d7790919063ffffffff16565b8690610dba565b94505050505b6001016103a4565b509392505050565b60606104d46111e0565b50604080516060810182526001600160a01b038816600081815260036020908152908490205483528201529081018690526105128782878787610e39565b6105375760405162461bcd60e51b815260040161052e906117be565b60405180910390fd5b6001600160a01b03871660009081526003602052604090205461055b906001610dba565b6001600160a01b0388166000908152600360205260409081902091909155517f5845892132946850460bff5a0083f71031bc5bf9aadcd40f1de79423eac9b10b906105ab90899033908a90611450565b60405180910390a160006060306001600160a01b0316888a6040516020016105d49291906113fe565b60408051601f19818403018152908290526105ee916113e2565b6000604051808303816000865af19150503d806000811461062b576040519150601f19603f3d011682016040523d82523d6000602084013e610630565b606091505b5091509150816106525760405162461bcd60e51b815260040161052e906115ac565b98975050505050505050565b604051806040016040528060018152602001603160f81b81525081565b6009545b90565b60025490565b6001600160a01b031660009081526003602052604090205490565b4690565b600260005414156106ca5760405162461bcd60e51b815260040161052e90611880565b60026000908155338152600b602052604090205415610a025733600090815260086020526040812090805b82548110156109a65782818154811061070a57fe5b90600052602060002090600602016004015483828154811061072857fe5b906000526020600020906006020160000154116107445761099e565b600083828154811061075257fe5b9060005260206000209060060201600201544211610770574261078f565b83828154811061077c57fe5b9060005260206000209060060201600201545b905060006107c38584815481106107a257fe5b90600052602060002090600602016003015483610ddf90919063ffffffff16565b905060006107f4600554610488848988815481106107dd57fe5b600091825260209091206006909102015490610d77565b905085848154811061080257fe5b9060005260206000209060060201600201548314156108625761085f86858154811061082a57fe5b90600052602060002090600602016004015487868154811061084857fe5b600091825260209091206006909102015490610ddf565b90505b61087f6104ad606461048860075485610d7790919063ffffffff16565b94506108b18187868154811061089157fe5b906000526020600020906006020160040154610dba90919063ffffffff16565b8685815481106108bd57fe5b90600052602060002090600602016004018190555061091b6108ef606461048860075485610d7790919063ffffffff16565b8786815481106108fb57fe5b906000526020600020906006020160050154610dba90919063ffffffff16565b86858154811061092757fe5b60009182526020909120600560069092020101556009546109489082610ddf565b600955336000908152600b60205260409020546109659082610ddf565b336000908152600b60205260409020558554839087908690811061098557fe5b9060005260206000209060060201600301819055505050505b6001016106f5565b506004546109be906001600160a01b03163383610edf565b336001600160a01b03167fd8138f8a3f377c5259ca548e70e4c2de94f129f5a11036a15b69513cba2b426a826040516109f7919061153a565b60405180910390a250505b6001600055565b6004546001600160a01b031681565b6001600160a01b03166000908152600b602052604090205490565b60055481565b60075481565b600a5490565b60026000541415610a685760405162461bcd60e51b815260040161052e90611880565b600260005580610a8a5760405162461bcd60e51b815260040161052e906115e3565b600654600a54610a9a9083610dba565b1115610ab85760405162461bcd60e51b815260040161052e90611642565b600954610ac59082610dba565b600955600a54610ad59082610dba565b600a55610b0881600b6000610ae8610f3a565b6001600160a01b0316815260208101919091526040016000205490610dba565b600b6000610b14610f3a565b6001600160a01b03168152602081019190915260400160002055610b4d610b39610f3a565b6004546001600160a01b0316903084610f97565b600060086000610b5b610f3a565b6001600160a01b03166001600160a01b031681526020019081526020016000209050610b8561120a565b6040518060c00160405280848152602001428152602001610bb160055442610dba90919063ffffffff16565b815242602080830191909152600060408084018290526060938401829052865460018181018955888452928490208651600690920201908155928501519183019190915583015160028201559082015160038201556080820151600482015560a08201516005909101559050610c25610f3a565b6001600160a01b03167f9e71bc8eea02a63969f509818f2dafb9254532904319f9dbda79b67bd34a5f3d84604051610c5d919061153a565b60405180910390a25050600160005550565b60086020528160005260406000208181548110610c8857fe5b600091825260209091206006909102018054600182015460028301546003840154600485015460059095015493965091945092909186565b6001600160a01b0381166000908152600860209081526040808320805482518185028101850190935280835260609492939192909184015b82821015610d6657838290600052602060002090600602016040518060c0016040529081600082015481526020016001820154815260200160028201548152602001600382015481526020016004820154815260200160058201548152505081526020019060010190610cf8565b505050509050919050565b60065481565b600082610d8657506000610db4565b82820282848281610d9357fe5b0414610db15760405162461bcd60e51b815260040161052e9061177d565b90505b92915050565b600082820183811015610db15760405162461bcd60e51b815260040161052e9061160b565b600082821115610e015760405162461bcd60e51b815260040161052e90611684565b50900390565b6000808211610e285760405162461bcd60e51b815260040161052e90611701565b818381610e3157fe5b049392505050565b60006001600160a01b038616610e615760405162461bcd60e51b815260040161052e90611738565b6001610e74610e6f87610fbe565b61101c565b83868660405160008152602001604052604051610e949493929190611567565b6020604051602081039080840390855afa158015610eb6573d6000803e3d6000fd5b505050602060405103516001600160a01b0316866001600160a01b031614905095945050505050565b610f358363a9059cbb60e01b8484604051602401610efe9291906114a9565b60408051601f198184030181529190526020810180516001600160e01b03166001600160e01b031990931692909217909152611038565b505050565b600033301415610f925760606000368080601f0160208091040260200160405190810160405280939291908181526020018383808284376000920191909152505050503601516001600160a01b0316915061067f9050565b503390565b610fb8846323b872dd60e01b858585604051602401610efe93929190611485565b50505050565b600060405180608001604052806043815260200161190c6043913980516020918201208351848301516040808701518051908601209051610fff9501611543565b604051602081830303815290604052805190602001209050919050565b6000611026610682565b82604051602001610fff929190611435565b606061108d826040518060400160405280602081526020017f5361666545524332303a206c6f772d6c6576656c2063616c6c206661696c6564815250856001600160a01b03166110c79092919063ffffffff16565b805190915015610f3557808060200190518101906110ab919061137e565b610f355760405162461bcd60e51b815260040161052e90611836565b60606110d684846000856110e0565b90505b9392505050565b6060824710156111025760405162461bcd60e51b815260040161052e906116bb565b61110b856111a1565b6111275760405162461bcd60e51b815260040161052e906117ff565b60006060866001600160a01b0316858760405161114491906113e2565b60006040518083038185875af1925050503d8060008114611181576040519150601f19603f3d011682016040523d82523d6000602084013e611186565b606091505b50915091506111968282866111a7565b979650505050505050565b3b151590565b606083156111b65750816110d9565b8251156111c65782518084602001fd5b8160405162461bcd60e51b815260040161052e9190611585565b60405180606001604052806000815260200160006001600160a01b03168152602001606081525090565b6040518060c001604052806000815260200160008152602001600081526020016000815260200160008152602001600081525090565b80356001600160a01b0381168114610db457600080fd5b803560ff81168114610db457600080fd5b600060208284031215611279578081fd5b6110d98383611240565b600080600080600060a0868803121561129a578081fd5b6112a48787611240565b945060208087013567ffffffffffffffff808211156112c1578384fd5b818901915089601f8301126112d4578384fd5b8135818111156112e2578485fd5b604051601f8201601f1916810185018381118282101715611301578687fd5b60405281815283820185018c1015611317578586fd5b8185850186830137908101909301849052509094505060408601359250606086013591506113488760808801611257565b90509295509295909350565b60008060408385031215611366578182fd5b6113708484611240565b946020939093013593505050565b60006020828403121561138f578081fd5b81518015158114610db1578182fd5b6000602082840312156113af578081fd5b5035919050565b600081518084526113ce8160208601602086016118df565b601f01601f19169290920160200192915050565b600082516113f48184602087016118df565b9190910192915050565b600083516114108184602088016118df565b60609390931b6bffffffffffffffffffffffff19169190920190815260140192915050565b61190160f01b81526002810192909252602282015260420190565b6001600160a01b0384811682528316602082015260606040820181905260009061147c908301846113b6565b95945050505050565b6001600160a01b039384168152919092166020820152604081019190915260600190565b6001600160a01b03929092168252602082015260400190565b602080825282518282018190526000919060409081850190868401855b8281101561152d5781518051855286810151878601528581015186860152606080820151908601526080808201519086015260a0908101519085015260c090930192908501906001016114df565b5091979650505050505050565b90815260200190565b93845260208401929092526001600160a01b03166040830152606082015260800190565b93845260ff9290921660208401526040830152606082015260800190565b6000602082526110d960208301846113b6565b6001600160a01b0391909116815260200190565b6020808252601c908201527f46756e6374696f6e2063616c6c206e6f74207375636365737366756c00000000604082015260600190565b6020808252600e908201526d043616e6e6f74207374616b6520360941b604082015260600190565b6020808252601b908201527f536166654d6174683a206164646974696f6e206f766572666c6f770000000000604082015260600190565b60208082526022908201527f5661756c743a7374616b653a3a207661756c74206c696d697420657863656564604082015261195960f21b606082015260800190565b6020808252601e908201527f536166654d6174683a207375627472616374696f6e206f766572666c6f770000604082015260600190565b60208082526026908201527f416464726573733a20696e73756666696369656e742062616c616e636520666f6040820152651c8818d85b1b60d21b606082015260800190565b6020808252601a908201527f536166654d6174683a206469766973696f6e206279207a65726f000000000000604082015260600190565b60208082526025908201527f4e61746976654d6574615472616e73616374696f6e3a20494e56414c49445f5360408201526424a3a722a960d91b606082015260800190565b60208082526021908201527f536166654d6174683a206d756c7469706c69636174696f6e206f766572666c6f6040820152607760f81b606082015260800190565b60208082526021908201527f5369676e657220616e64207369676e617475726520646f206e6f74206d6174636040820152600d60fb1b606082015260800190565b6020808252601d908201527f416464726573733a2063616c6c20746f206e6f6e2d636f6e7472616374000000604082015260600190565b6020808252602a908201527f5361666545524332303a204552433230206f7065726174696f6e20646964206e6040820152691bdd081cdd58d8d9595960b21b606082015260800190565b6020808252601f908201527f5265656e7472616e637947756172643a207265656e7472616e742063616c6c00604082015260600190565b958652602086019490945260408501929092526060840152608083015260a082015260c00190565b60005b838110156118fa5781810151838201526020016118e2565b83811115610fb8575050600091015256fe4d6574615472616e73616374696f6e2875696e74323536206e6f6e63652c616464726573732066726f6d2c62797465732066756e6374696f6e5369676e617475726529a2646970667358221220f373798729214a423b431054e2c5dfe4d842864d0c4f4701f412565fa1a7bc7064736f6c634300060c0033454950373132446f6d61696e28737472696e67206e616d652c737472696e672076657273696f6e2c6164647265737320766572696679696e67436f6e74726163742c627974657333322073616c7429",
  "immutableReferences": {},
  "source": "// SPDX-License-Identifier: MIT\npragma solidity >=0.6.11;\npragma experimental ABIEncoderV2;\n\n// Inheritance\nimport \"@openzeppelin/contracts/access/Ownable.sol\";\nimport \"@openzeppelin/contracts/math/SafeMath.sol\";\nimport \"@openzeppelin/contracts/utils/ReentrancyGuard.sol\";\nimport \"@openzeppelin/contracts/token/ERC20/SafeERC20.sol\";\nimport \"@openzeppelin/contracts/token/ERC20/IERC20.sol\";\nimport \"./interfaces/IVault.sol\";\nimport \"./lib/NativeMetaTransaction.sol\";\n\ncontract Vault is IVault, ReentrancyGuard, NativeMetaTransaction {\n    using SafeMath for uint256;\n    using SafeERC20 for IERC20;\n\n    /* ========== STATE VARIABLES ========== */\n\n    IERC20 public vaultToken;\n\n    uint256 public vestingPeriod;\n    uint256 public vaultLimit;\n    uint256 public interestRate;\n\n    struct UserVault {\n        uint256 amount;\n        uint256 depositTime;\n        uint256 vestingPeriodEnds;\n        uint256 lastUpdated;\n        uint256 claimedAmount;\n        uint256 totalEarned;\n    }\n\n    mapping(address => UserVault[]) public userVault;\n\n    uint256 private _totalSupply;\n    uint256 private _totalDeposit;\n\n    mapping(address => uint256) private _balances;\n    \n    /* ========== EVENTS ========== */\n\n    event Staked(address indexed user, uint256 amount);\n    event Claimed(address indexed user, uint256 reward);\n\n    /* ========== CONSTRUCTOR ========== */\n    constructor(address _vaultToken,\n            uint256 _vestingPeriod,\n            uint256 _interestRate,\n            uint256 _vaultLimit) public {\n        vaultToken = IERC20(_vaultToken);\n        vaultLimit = _vaultLimit.mul(1 ether);\n        interestRate = _interestRate.add(100);\n        vestingPeriod = _vestingPeriod.mul(1 days);\n        _initializeEIP712('VaultV1');\n    }\n\n    /* ========== VIEWS ========== */\n    function totalSupply() external view override returns (uint256) {\n        return _totalSupply;\n    }\n\n    function totalDeposits() external view returns (uint256) {\n        return _totalDeposit;\n    }\n\n    function balanceOf(address account) external view override returns (uint256) {\n        return _balances[account];\n    }\n\n    function getUserVaultInfo(address account) external view returns (UserVault[] memory) {\n        return userVault[account];\n    }\n\n    function earned(address account) public view override returns (uint256) {\n        UserVault[] memory userVaultData = userVault[account];\n        uint256 claimableAmount = 0;\n\n        for (uint256 i = 0; i < userVaultData.length; i++) {\n            if (userVaultData[i].amount <= userVaultData[i].claimedAmount) continue;\n            uint256 currentTime =\n                block.timestamp > userVaultData[i].vestingPeriodEnds\n                    ? userVaultData[i].vestingPeriodEnds\n                    : block.timestamp;\n            uint256 timeSinceLastClaim = currentTime.sub(userVaultData[i].lastUpdated);\n            uint256 unlockedAmount = userVaultData[i].amount.mul(timeSinceLastClaim).div(vestingPeriod);\n            claimableAmount = claimableAmount.add(unlockedAmount.mul(interestRate).div(100));\n        }\n        return claimableAmount;\n    }\n\n    /* ========== MUTATIVE FUNCTIONS ========== */\n    function stake(uint256 amount) external override nonReentrant {\n        require(amount > 0, 'Cannot stake 0');\n        require(_totalDeposit.add(amount) <= vaultLimit, 'Vault:stake:: vault limit exceeded');\n\n        _totalSupply = _totalSupply.add(amount);\n        _totalDeposit = _totalDeposit.add(amount);\n        _balances[_msgSender()] = _balances[_msgSender()].add(amount);\n\n        vaultToken.safeTransferFrom(_msgSender(), address(this), amount);\n\n        UserVault[] storage userVaultData = userVault[_msgSender()];\n        UserVault memory userVaultNewEntry =\n            UserVault(amount, block.timestamp, block.timestamp.add(vestingPeriod), block.timestamp, 0, 0);\n        userVaultData.push(userVaultNewEntry);\n\n        emit Staked(_msgSender(), amount);\n    }\n\n    function claim() public override nonReentrant {\n        if (_balances[msg.sender] > 0) {\n            UserVault[] storage userVaultData = userVault[msg.sender];\n            uint256 claimableAmount = 0;\n            for (uint256 i = 0; i < userVaultData.length; i++) {\n                if (userVaultData[i].amount <= userVaultData[i].claimedAmount) continue;\n                uint256 currentTime =\n                    block.timestamp > userVaultData[i].vestingPeriodEnds\n                        ? userVaultData[i].vestingPeriodEnds\n                        : block.timestamp;\n                uint256 timeSinceLastClaim = currentTime.sub(userVaultData[i].lastUpdated);\n                uint256 unlockedAmount = userVaultData[i].amount.mul(timeSinceLastClaim).div(vestingPeriod);\n\n                if (currentTime == userVaultData[i].vestingPeriodEnds) {\n                    unlockedAmount = userVaultData[i].amount.sub(userVaultData[i].claimedAmount);\n                }\n\n                claimableAmount = claimableAmount.add(unlockedAmount.mul(interestRate).div(100));\n                userVaultData[i].claimedAmount = userVaultData[i].claimedAmount.add(unlockedAmount);\n                userVaultData[i].totalEarned = userVaultData[i].totalEarned.add(\n                    unlockedAmount.mul(interestRate).div(100)\n                );\n                _totalSupply = _totalSupply.sub(unlockedAmount);\n                _balances[msg.sender] = _balances[msg.sender].sub(unlockedAmount);\n                userVaultData[i].lastUpdated = currentTime;\n            }\n            vaultToken.safeTransfer(msg.sender, claimableAmount);\n            emit Claimed(msg.sender, claimableAmount);\n        }\n    }\n\n}",
  "sourcePath": "/home/fabio/Ibiza/IBZVault/contracts/Vault.sol",
  "compiler": {
    "name": "solc",
    "version": "0.6.12+commit.27d51765.Emscripten.clang"
  },
  "schemaVersion": "3.4.1",
  "updatedAt": "2021-07-09T13:53:59.811Z",
  "devdoc": {
    "kind": "dev",
    "methods": {},
    "version": 1
  },
  "userdoc": {
    "kind": "user",
    "methods": {},
    "version": 1
  }
}